:020000040800F2
:1000000000B80020B9020008ED200008871C000895
:10001000E9200008A9190008D729000800000000FD
:10002000000000000000000000000000CD220008D9
:10003000551B00080000000075210008E12300089E
:10004000D3020008D3020008D3020008D30200083C
:10005000D3020008D3020008D3020008D30200082C
:10006000D3020008D3020008D3020008D30200081C
:10007000D3020008D3020008D3020008D30200080C
:10008000D3020008D3020008D3020008D3020008FC
:10009000D3020008D3020008D3020008D3020008EC
:1000A000D3020008D3020008D3020008D3020008DC
:1000B000D3020008D302000845240008D302000838
:1000C000D3020008D3020008D3020008D3020008BC
:1000D000D302000889260008D3020008112700086F
:1000E000D3020008D3020008D3020008D30200089C
:1000F000D3020008D3020008D3020008D30200088C
:10010000D3020008D3020008D3020008D30200087B
:10011000D3020008D3020008D30200087D2400089F
:10012000D3020008D3020008D3020008D30200085B
:1001300000F002F800F0B0F80AA090E8000C824449
:100140008344AAF10107DA4501D100F0A5F8AFF226
:10015000090EBAE80F0013F0010F18BFFB1A43F0A5
:100160000103184710640000306400000A444FF097
:10017000000C10F8013B13F0070408BF10F8014B06
:100180001D1108BF10F8015B641E05D010F8016B4B
:10019000641E01F8016BF9D113F0080F1EBF10F8AF
:1001A000014BAD1C0C1B09D16D1E58BF01F801CBD2
:1001B000FAD505E014F8016B01F8016B6D1EF9D555
:1001C0009142D6D37047000000230024002500266A
:1001D000103A28BF78C1FBD8520728BF30C148BFAA
:1001E0000B6070476E2900F05E83702900F08581F6
:1001F000662906F05B80652906F05880672906F0BD
:1002000055806129AFF3008003681B0A28BF41F0C5
:100210008001692900F0F680642900F0F3807529D7
:1002200000F0F0806F2900F05684782900F05181A9
:10023000E92900F0F183E42900F0EE83F52900F0CC
:10024000EB83EF2900F05384F82900F05081036814
:10025000DB0928BF41F08001632900F06083732926
:1002600000F06583E32900F0A986F32900F0AE864B
:10027000002070471FB500F0FFFE040000200021A1
:1002800005F0FEFF401C60600020002105F0E2FF49
:10029000E0601FBD10B510BD00F0C0FE1146FFF7B5
:1002A000E9FF04F0E1FB00F099FF03B4FFF7F2FF70
:1002B00003BC02F0ADFB0000094880470948004735
:1002C000FEE7FEE7FEE7FEE7FEE7FEE7FEE7FEE706
:1002D000FEE7FEE704480549054A064B7047000063
:1002E000E52300083101000800B2002000B800201A
:1002F00000B4002000B40020704700001CB50C467C
:10030000064B7B4469460090204600F0E6FA04461E
:100310000020694600F0F4FA20461CBDFB050000F1
:100320000FB4044910B503AA029800F005FB10BCF5
:100330005DF814FB180000200FB41CB5084B06AA8A
:100340007B4469460090059800F0C7FA04460020F7
:10035000694600F0D5FA20461CBC5DF814FB00008D
:10036000BD05000070B5044685690068C10601D569
:10037000302600E02026C00707D070BDD4E9012157
:1003800030469047206A401C20626D1EF6D570BD35
:1003900070B5044685690078C00707D170BDD4E9FF
:1003A000012120209047206A401C20626D1EF6D556
:1003B00070BD70B50C460546012A05D02878800628
:1003C00000D5EA69002302E0012305E05B1C9342AB
:1003D00002D2E05C0028F9D1A869E618C01AA86129
:1003E000286A184428622846FFF7BCFF04E0D5E9D4
:1003F000012114F8010B9047B442F8D32846FFF7C7
:10040000C7FF70BD2DE9F04106460024106875292C
:10041000314616A510D000F0DBF9002802DA404280
:1004200013A507E031688A0701D512A502E0490744
:1004300004D511A5012401E000F0D3F900210A221E
:1004400006F1240709E0B0FBF2FCB0FBF2F302FB7B
:100450001C00303078541846491C0028F3D123463C
:100460002A463046BDE8F04100F0C4B90000000063
:100470002D0000002B00000020000000F0B40D460D
:100480000188090502D5214C7C4402E01F4C7C44C4
:100490000E34002100F1240608E002F00F071209D3
:1004A000E75D42EA03721B097754491C52EA0307CD
:1004B000F3D102780023120704D5702D06D009B1BC
:1004C000022311342246F0BC00F094B90123103409
:1004D000F8E770B504460D462146106800F081F932
:1004E000024629462046BDE870400023C6E7D21DDB
:1004F00022F00703D3E90023C0E70368126843F042
:10050000200303600823C3610023B7E77C5E00007B
:100510002DE9F05F894604464FF0000ADFF874B118
:10052000FB44C0F820A02046E1688847002874D02A
:10053000252806D0D4E901219047206A401C20627A
:10054000F1E700265F462046E168884720280546F7
:1005500007DB312D05D2781910F8200C08B10643BD
:10056000F1E7B00701D526F00406C4F81CA0002767
:10057000C4F818A02A2D09D0284602F042FA38B350
:1005800004EB8708303DC8F8185019E059F8041BEF
:10059000204604EB87029161E1688847012F0546F8
:1005A00018D1E069002820DA26F020061DE0D8F8EE
:1005B000180000EB800005EB40003038C8F8180048
:1005C0002046E1688847054602F01BFA0028EED174
:1005D000012F0AD02E2D08D12046E16888477F1CC4
:1005E0000546022F46F02006C4DBA069002803DA86
:1005F000404246F00106A061F00701D026F0100647
:100600006C2D0BD0682D09D04C2D39D06A2D35D0EA
:10061000742D35D07A2D33D016E038E0E1682F46BE
:1006200020468847B842054609D16C2F26D04FF4A2
:100630008060E168064320468847054604E06C2F49
:100640001AD04FF4807006430DB3A5F1410019286C
:1006500002D8203546F400664A46294620462660E0
:100660004E46FFF7BFFD80B101280BD0F61D26F0E6
:10067000070000F1080956E74020E4E78020D8E7AA
:100680000020D6E706F104094DE7284652E7206A24
:10069000BDE8F09F0C5E000030B505460B462A46CB
:1006A00013F8014B12F8010B08B1A042F8D01CB1AD
:1006B000002802D06D1CF1E7284630BD10B5431C60
:1006C00002E010F8011B71B18107FAD14FF001323D
:1006D00002C88C1A8C4314EAC211F9D0C01A0A0657
:1006E00003D0C01E10BDC01A10BD0A0401D0801E68
:1006F00010BD0902FCD0401E10BD4FF0000200B535
:10070000134694469646203922BFA0E80C50A0E834
:100710000C50B1F12001BFF4F7AF090728BFA0E8E2
:100720000C5048BF0CC05DF804EB890028BF40F8AE
:10073000042B08BF704748BF20F8022B11F0804FF0
:1007400018BF00F8012B70474FF0013C50F8042B04
:1007500051F8043B9A4221D1A2EB0C03934313EAD4
:10076000CC1317D150F8042B51F8043B9A4215D101
:10077000A2EB0C03934313EACC130BD150F8042BD8
:1007800051F8043B9A4209D1A2EB0C03934313EABC
:10079000CC13DBD04FF00000704700BFD01A01BA75
:1007A000B1FA81F101F0180122FA01F0CB40C1F158
:1007B0002001DBB2C0B2C01A2CFA01F3D11A914366
:1007C00011EAC311E6D17047704770477047704710
:1007D00009684A0501D540B27047C905FCD500B289
:1007E000704709684A0501D5C0B27047C905FCD5F4
:1007F00080B270472DE9F0470D469946924604466F
:1008000000F124080168880604D5E06921F0100190
:10081000216000E00120A84201DD471B00E0002725
:10082000A1697A1902EB0900081AA0612078C006B4
:1008300002D42046FFF796FD002608E0D4E9012106
:100840001AF806009047206A401C761C20624E452C
:10085000F4DB2078C0060AD52046FFF783FD06E0CA
:10086000D4E9012130209047206A401C2062381EC4
:10087000A7F10107F4DC07E0D4E9012118F805002D
:100880009047206A401C2062281EA5F10105F3DC78
:100890002046FFF77DFD2078000602D50220BDE846
:1008A000F0870120FBE711680268006A530501D553
:1008B00008700AE0D30501D5088006E0130603D5C9
:1008C000C217C1E9000200E0086001207047000083
:1008D00001694A1C02610878704700B58FB0CDE904
:1008E00001310021059105497944CDE903101146F4
:1008F0006846FFF70DFE0FB000BD0000E5FFFFFFEB
:100900000A6802F8010B0A60704710B5436913B119
:10091000AFF3008001E0FFF74CFD012010BD12781D
:1009200000F124010A7000224A700122EDE71168EB
:100930004FF0FF32E9E70000074B70B50D467B44EE
:10094000FFF7CBFF0446284600F044FB10B14FF000
:10095000FF3070BD204670BD0B4100002DE9FF5FE8
:1009600015468A460446DFF8AC80F8440027D8E9EB
:1009700000103E46CDE9001010E03AF816106A4625
:1009800002A800F02BFB411C07D02178890603D573
:10099000E269391891420DD80744761C2078800608
:1009A00002D5E069B84205DDAE42E6DB3AF8160052
:1009B0000028E2D1A069C01BA0612046FFF7D2FC4D
:1009C000D8E90010CDE90010002017E03AF818101F
:1009D0006A4602A800F002FBB0F1FF3F81460BD04F
:1009E00000250DF1080B05E0D4E901211BF80500F5
:1009F00090476D1C4D45F7D308F10100B042804689
:100A0000E4DB206A384420622046FFF7C1FCBDE8E1
:100A1000FF9F0000D65900002DE9F0418046D21D0D
:100A200022F007020025D2E90002F52915A614D00C
:100A3000011E72F1000106DA0023D0EB030063EB24
:100A4000020211A608E0D8F800108B0701D50FA606
:100A500002E0490701D50EA601251146002408F140
:100A6000240704E000F04EF830323A55641C50EA96
:100A70000102F7D12B46324621464046BDE8F041FF
:100A8000FFF7B8BE000000002D0000002B000000A2
:100A90002000000030B4002100F1240408E002F03E
:100AA0000705D208303542EA4372DB086554491C19
:100AB00052EA0305F3D10468002310A2250707D5E5
:100AC000A40600D421B1C46901230DA2641EC4612F
:100AD00030BCFFF78FBE10B5044621461068FFF703
:100AE00080FE02462046BDE810400023D2E7D21D1A
:100AF00022F00701D1E90023CCE70000000000004C
:100B00003000000030B5B0F10A024FEA900E71F1EA
:100B100000034EEA817EB0EB0E0061EB91014FEADB
:100B2000101E4EEA017E10EB0E0041EB11114FEA50
:100B3000102E4EEA016E10EB0E0041EB11214FEA30
:100B4000104E4EEA014E10EB0E0041EB11414018E1
:100B500041F100014FEAD00040EA41704FEAD10173
:100B600010EB80054FEA810444EA907444EB0104E1
:100B70006D1944EB0404521BA3414FF0000348BF1E
:100B80000A3200D530BD401C41F1000130BD704734
:100B90002DE9FF4F0C461E464FF0FF378BB0D2E9D0
:100BA0000001DDF860800A908A46C1F30A5505B954
:100BB0003D46002108464FF00000BAF1000F00F456
:100BC000400005DA00EB80004FF4400101EA5000DC
:100BD0004FEA9059B9F1010F00DDB9460A9850EA81
:100BE0004A000ED044F61050A5F2FF3545432F14AD
:100BF000B8F1000F1ED07542291E1EDDC9F100029A
:100C00001CE0B8F1010F4FF0000001D0302103E0EB
:100C1000F24305E02154401CB042FBDB3046002289
:100C2000002121540B99C1F80880C1E900200FB0C0
:100C3000BDE8F08FBD1B6D1CDEE74A4600DA694255
:100C400006A800F05DFA06AB93E8070003AB83E863
:100C5000070050460A9900F0CFFA8DE80700A0F58A
:100C600000501F3800900398002D09DD42F21F014B
:100C70004A46084403A90390684600F02EFD08E0A8
:100C8000A0F500504A461F3803A90390684600F0BB
:100C900038FD8DE807000004000C03D04FF0FF3052
:100CA000410800E01046B8F1000F03D00022009286
:100CB00015461EE0751E05D4FFF724FF303262553D
:100CC0006D1EF9D5B3460122084302D000227F1CD5
:100CD00004E02078302801D100227F1E002A0997E5
:100CE00086D01DE0112D07DAFFF70CFF3032625578
:100CF0006D1C50EA0102F5D1084302D00098C8B13A
:100D00000EE00021681E05E0235C625C63542254FF
:100D1000401E491C8142F7DBAB46A81B401E0990D0
:100D2000002004F80B000B98099AC0F80880C0E96D
:100D3000002B7CE711264FF0000859E72DE9F04F12
:100D400088460446D21D22F0070191B0D1E9000186
:100D5000CDE90A0101F041FE02460B98C00F01D017
:100D60002D2007E02068810701D52B2002E02021FB
:100D700001EAC000032A099001D0072A05DB0346D7
:100D80004146204600F07CF90BE12078800601D531
:100D9000E06900E00620B8F1650F814606D0B8F1A1
:100DA000660F18D0B8F1670F70D131E00020B9F1AB
:100DB000110F009001DB112301E009F101030AAAE0
:100DC00001A90CA8FFF7E4FEDDE90C70002609F18B
:100DD0000105834647E001204B4600904FF0004755
:100DE0000AAA01A90CA8FFF7D3FEDDE90DB00C9902
:100DF0005D46002610B909F101000D18B9EB050098
:100E000003D4C0F1FF3609F10105A5EB09002BE081
:100E1000B9F1010F01DA4FF001090020B9F1110F0A
:100E20000090484601DD112300E003460AAA01A90B
:100E30000CA8FFF7ADFEDDE90C704D460026834699
:100E4000207800070AD4AB4500DA5D4601A8012DE1
:100E500004DD411911F8011C302907D04F4502DA91
:100E600017F1040F04DA012082460FE06D1EEEE751
:100E7000002F02DCED1B3E4403E0781CA84200DD9D
:100E80007D1CB81B00F1010A4FF0004720780007D5
:100E900003D4AA4501DB4FF0FF3A0021B7F1004F20
:100EA0000DF143088DF8431024D002202B23002F8E
:100EB00001DA7F422D230A21021EA0F1010000DC8D
:100EC0005FB197FBF1FC97FBF1F201FB1C7C17462D
:100ED0000CF1300C08F801CDEEE7A8F10100037029
:100EE0002188090501D5452100E06521A0F101080F
:100EF00000F8011C09980FA9A1EB0807FF1D00B11C
:100F00000120411901EBEA70A1693844081A401E1A
:100F1000A0612078C00602D42046FFF723FA099882
:100F200028B1D4E901219047206A401C2062207832
:100F3000C00622D52046FFF715FA1EE0002E04DB7E
:100F4000B34502DD01A8805D00E03020D4E9012135
:100F50009047206A401C2062761CAAF101005FEADB
:100F6000000A0AD100F088F8C0680168405CD4E942
:100F700001219047206A401C2062281EA5F101052E
:100F8000DCDC07E0D4E9012118F8010B9047206A66
:100F9000401C2062381EA7F10107F3DC2046FFF752
:100FA000F7F9032011B043E610B5436913B1AFF36D
:100FB000008001E0FFF7D2FC012010BD128800F193
:100FC000240182840022C2840122EDE711684FF0DF
:100FD000FF32E9E7007B00F08000704770B51646ED
:100FE0000C46054600F040F8036893F8010101281B
:100FF00006D0FF2C0FD8185D68B101202C7070BD91
:10100000D3F807013246214603F20713034428466A
:10101000BDE8704018474FF0FF3070BD754600F0D6
:10102000E7F8AE4605006946534620F007008546BE
:1010300018B020B5FFF74EF9BDE820404FF000068C
:101040004FF000074FF000084FF0000B21F00701B0
:10105000AC46ACE8C009ACE8C009ACE8C009ACE8F3
:10106000C0098D467047000010B500F005F8001D5E
:1010700010BD00BF0D52000000487047C0B10020F5
:101080002DE9F0411F46044603260168072A01F4B2
:10109000006004DB08B116A505E016A503E008B161
:1010A00015A500E015A521F010002060A069C01E64
:1010B000A0610FB1401EA0612046FFF753F94FB168
:1010C000D4E9012138469047206A401C2062C01CA8
:1010D000206206E0206AFAE7D4E9012115F8010B45
:1010E0009047761EF8D22046FFF752F9BDE8F0810E
:1010F0004E414E006E616E00494E4600696E6600BC
:101100002DE9F047814616468AB0334878440DC829
:101110008DE80D0030487844801C03AC0DC884E88D
:101120000D0041F69B300844372190FBF1F290FB13
:10113000F1F5A5F1800501FB12041B3C02D56442C8
:10114000012000E00020DFF890A080460027FA444C
:10115000AAF1BE0A0DE0E00709D03246684607EB67
:1011600047010AEB810100F0CCFA8DE8070064101A
:101170007F1C002CEFD1184F7F44AC3F18E0E807EC
:1011800014D007EB04100DF1180A90E80E008AE85D
:101190000E00C068F04201D198190890324606A9A5
:1011A00003A800F0AEFA03AB83E807006D10641CDF
:1011B000002DE4D132466946B8F1000F03A802D0F1
:1011C00000F08BFA01E000F09CFAC9E90001C9F8CF
:1011D00008200AB0BDE8F087B852000010B50446F8
:1011E000AFF300802046BDE81040FFF75EB8000076
:1011F00000487047A0B100205FEA400C08BF91F0A2
:10120000000F4FEA8C234FEAC12243EA51514FEAC3
:101210001C5018BF00F5F0404FEA300018BF41F0F5
:1012200000415FEA6C5C00F02980BCF1FF3F08BF21
:1012300040F080407047130C06BF12044FF0100CB2
:101240004FF0000C130E04BF12020CF1080C130F28
:1012500004BF12010CF1040C930F04BF92000CF1B7
:10126000020CD30F04BF52000CF1010C11464FF0D9
:101270000002A0F11F00A0EB0C00704711F0004F1E
:1012800008BF704731F000413FF4D5AF0B0C06BFEB
:1012900009044FF0100C4FF0000C0B0E04BF0902B4
:1012A0000CF1080C0B0F04BF09010CF1040C8B0F9F
:1012B00004BF89000CF1020CCB0F04BF49000CF1F4
:1012C000010CCCF12003A0EB0C0022FA03F302FA8C
:1012D0000CF241EA030100F10100704720F07F4C5D
:1012E00080EA030023F07F47ACEB070303F57C5350
:1012F00000F0004003F1FF032DE980494FEA154B50
:1013000009B44FEA144325EA0B4E24EA03480FF2CE
:10131000042606EB132749083E785FEA320203FBF6
:101320000667C7F5000707FB06F64FEA54374FEA92
:10133000D64606F1020607FB066CCCF1005C4FEACC
:101340001C472CEA074C07FB06F40CFB06F504EBE4
:1013500015464FEA961634BF00204FF000404FEA82
:10136000D13706FB07FC4FEA1C4C0CFB0BF7D21BDA
:1013700003FB0CF761EB07010CFB0EF7B0EB07402A
:1013800072EB17420CFB08F734BFA2EB0742B2EB3B
:10139000074261EB17414FEA0C444FEA910706FB05
:1013A00007FC4FEA1C4C0CFB0BF7B0EBC74072EB91
:1013B000573203FB0CF734BFA2EBC742B2EBC74274
:1013C00061EB57310CFB0EF7B0EBC70072EB5772B5
:1013D0000CFB08F734BFA2EBC702B2EBC70261EB0C
:1013E0005771039F4FEA816141EA921104EBCC04EB
:1013F0004FEAD1374FEA826206FB07FC42EA9012BD
:101400004FEA80604FEA1C4C0CFB0BF7D21B03FB2E
:101410000CF761EB07010CFB0EF7B0EB074072EB2A
:1014200017420CFB08F734BFA2EB0742B2EB0742AE
:1014300061EB17414FEA8C554FEA910704EB9C246E
:1014400006FB07FC4FEA1C4C0CFB0BF7B0EBC7404C
:1014500072EB573203FB0CF734BFA2EBC742B2EB7F
:10146000C74261EB57310CFB0EF7B0EBC70072EBD4
:1014700057720CFB08F734BFA2EBC702B2EBC702EE
:1014800061EB577115EB4C254FEA816141EA9211EE
:101490004FEA82624FEAD13742EA901206FB07FC1C
:1014A00044F100044FEA80604FEA1C4C0CFB0BF740
:1014B000D21B03FB0CF761EB07010CFB0EF7B0EB43
:1014C000074072EB17420CFB08F734BFA2EB074250
:1014D000B2EB074261EB174115EB1C154FEA813166
:1014E00041EA92414FEA823242EA90424FEA80302A
:1014F0004FEA0C7644F1000448EA03434EEA0B48F5
:101500004FF0000EB2EB080C71EB030724BF6246EC
:1015100039464EEB0E0E4FF0000B00185241494178
:101520004BEB0B0BB2EB080C71EB03077BF1000BE1
:1015300024BF624639464EEB0E0E4FF0000B0018EA
:10154000524149414BEB0B0BB2EB080C71EB03071B
:101550007BF1000B24BF624639464EEB0E0E51EA7A
:10156000020718BF46F0010616EB0E7655F1000291
:1015700054F1000103D5BDE88901BDE80088BDE84C
:101580008901BDE80048B619524141EB0101A3F1C0
:101590000103704780807F7E7D7C7B7A79787776C7
:1015A00076757473727171706F6E6E6D6C6C6B6A40
:1015B0006A696868676666656464636362616160DE
:1015C000605F5F5E5E5D5D5C5C5B5B5A5A5959585B
:1015D00058575756565555555454535352525251C5
:1015E000515050504F4F4F4E4E4D4D4D4C4C4C4B1B
:1015F0004B4B4A4A4A494949484848474747474662
:10160000464645454544444444434343434242429D
:1016100042414141002B26D4770021D01CB54FEA2E
:10162000370703B44FF010004FF010014FF00000E7
:101630000FBCBDE810400BF1010BBBF1010F08BF5F
:101640005FEA170722BF12F1010211F101014FF009
:10165000004143F1000300F0004043EA00007047FE
:10166000F9D35708DAE746EA064613F1400F4FEA86
:1016700016461FDD13F1200FDFBF16430A46002177
:1016800020335B42C8D0C3F1200746EA064602FA7F
:1016900007F74FEA164646EA0706C3F1200722FA83
:1016A00003F201FA07F721FA03F14FF0000342EACF
:1016B0000702B1E746EA020646EA06464FEA164640
:1016C00046EA0106BCBF46EA0646360C4FF0000368
:1016D0004FF000024FF000019EE72DE9C04893460D
:1016E00030B491E8380007C831EA400C48BF34EA0A
:1016F000430C03D5FFF7F2FDFFF78CFFF0BCBDE80C
:1017000000882DE9C048934630B491E8380007C8F6
:1017100010F0804F08BF13F0804F03D100F005F8A0
:10172000FFF778FFF0BCBDE8008820F07F4780EA33
:10173000030023F07F4C07EB0C03A3F57C5300F070
:101740000040A3F1FE0392F0000F00F0B38095F08B
:10175000000F00F077802DE901494FEA11404FEA70
:10176000144621EA004800FB06FC24EA064708FB71
:1017700006F607FB08F800FB07F718EB06484CEBEA
:10178000164C4FEA124B18EB07484FEA15464CEB44
:10179000174022EA0B4E0BFB06FC25EA06470EFB20
:1017A00006F607FB0EFE0BFB07F71EEB064E4CEB97
:1017B000164C4FF000061EEB074E4CEB174B18EB88
:1017C0000B0840F1000018EB0E0B58EB000840F13D
:1017D00000008F1A4FF000013CBFC943661B14BFC5
:1017E000B5EB040C00213CBFC943F61B4FEA17447C
:1017F0004EEA8E0E27EA04454FEA1C4704FB0762B7
:101800002CEA074C05FB07F70CFB05F604FB0CFC68
:1018100016EB074642EB174216EB0C4642EB1C4216
:101820001BEB060658EB0202414146EA9E0601D533
:10183000BDE80189B619524141EB0101A3F1010351
:10184000BDE801894FEA14454FEA114724EA0546ED
:1018500021EA074C05FB07F406FB07F70CFB06F132
:1018600005FB0CFC11EB074144EB17444FEA124710
:1018700011EB0C4144EB1C4422EA074C05FB07F238
:1018800006FB07F70CFB06F605FB0CFC16EB074600
:1018900042EB174216EB0C4642EB1C456A1854F11A
:1018A000000148BF7047B619524141EB0101A3F155
:1018B0000103704795F0000F37D04FEA11424FEA0D
:1018C000144721EA024624EA074C02FB07F106FB13
:1018D00007F70CFB06F402FB0CFC14EB074441EB8E
:1018E00017414FEA154714EB0C4441EB1C4125EA24
:1018F000074C02FB07F506FB07F70CFB06F602FB9D
:101900000CFC16EB074645EB174516EB0C4645EB72
:101910001C42121951F1000148BF7047B6195241DB
:1019200041EB0101A3F1010370474FEA14454FEA6F
:10193000114724EA054621EA074C05FB07F106FB9F
:1019400007F70CFB06F24FF0000605FB0CFC12EB50
:10195000074241EB174112EB0C4251EB1C4148BFCF
:101960007047921841EB0101A3F101037047000099
:1019700008B50121082000F01FFC4FF48070ADF87D
:10198000000010208DF8030003208DF80200694646
:10199000044800F0E0F84FF48071024800F06FF95D
:1019A00008BD0000000C014000BFFEE710B5002498
:1019B0001548406820F47040134948600846406864
:1019C00040F40040486004E0601CC4B2012003F011
:1019D00017F80E48006808B1642CF5DB642C01DBB5
:1019E000012010BD002404E0601CC4B2012003F0FB
:1019F00007F80648006808B9642CF5DB642C01DBA5
:101A00000120EEE70020ECE7002001402C012442F9
:101A100008B50121080200F0CFFB4FF40060ADF8DB
:101A2000000010208DF8030003208DF802006946A5
:101A3000064800F090F84FF40061044800F021F9E6
:101A400000F068F8FFF7B2FF08BD00000020014079
:101A500010B5002404E0601CC4B2012002F0D0FFE5
:101A60000D48006808B1642CF5DB002404E0601C1C
:101A7000C4B2012002F0C4FF0748006808B9642C12
:101A8000F5DB282002F0BCFF0348006808B1012004
:101A900010BD0020FCE700002C01244270B500249A
:101AA000002506E06006040EFFF7D2FF0443681C21
:101AB000C5B2082DF6DB204670BD7CB505460E4646
:101AC00000F028F8FFF772FFF8B9002405E0FFF7EF
:101AD000E5FF0DF80400601CC4B2052CF7DB9DF88F
:101AE00000009DF8011008449DF8021008449DF87C
:101AF000031008449DF80410884208D19DF80000A6
:101B000030709DF80200287001E001207CBD0020AB
:101B1000FCE7000010B50C48406820F470400A490A
:101B200048600846406840F440504860002007493B
:101B30000860142002F03EFF01200549C1F8AC0105
:101B40001E2002F05DFF10BD00200140AC012442C8
:101B50000000244270472DE9F0410246002500268E
:101B6000002000230024002791F803C00CF00F058B
:101B700091F803C00CF0100CBCF1000F03D091F8E9
:101B800002C04CEA050591F800C0BCF1000F31D04D
:101B9000146800202BE04FF0010C0CFA00F3B1F8B0
:101BA00000C00CEA03069E4220D183004FF00F0CC8
:101BB0000CFA03F7BC4305FA03FC4CEA040491F861
:101BC00003C0BCF1280F06D14FF0010C0CFA00FC49
:101BD000C2F814C00AE091F803C0BCF1480F05D167
:101BE0004FF0010C0CFA00FCC2F810C0401C082891
:101BF000D1D31460B1F800C0BCF1FF0F34DD5468DC
:101C000000202EE000F1080C4FF0010808FA0CF358
:101C1000B1F800C00CEA03069E4221D183004FF0C8
:101C20000F0C0CFA03F7BC4305FA03FC4CEA04045E
:101C300091F803C0BCF1280F05D100F1080C08FA97
:101C40000CF8C2F8148091F803C0BCF1480F07D11A
:101C500000F1080C4FF0010808FA0CF8C2F81080E7
:101C6000401C0828CED35460BDE8F0810246002015
:101C700093680B400BB1012000E0002070474161E8
:101C800070470161704700BFFEE7000008B5012101
:101C9000442000F091FA1C20ADF8000048208DF897
:101CA000030069460648FFF756FF0120ADF8000023
:101CB00028208DF8030069460248FFF74CFF08BD55
:101CC000001801400008014010B5044614B101207D
:101CD0002C4908702B480078002837D010212A485A
:101CE000FFF7C4FF78B108212748FFF7BFFF50B1C5
:101CF00004212548FFF7BAFF28B101212348FFF747
:101D0000B5FF012822D10A2002F054FE00201D490F
:101D1000087010211C48FFF7A9FF08B9012010BD69
:101D200008211948FFF7A2FF08B90220F7E70421AC
:101D30001548FFF79BFF08B90320F0E7012113487E
:101D4000FFF794FF01281BD10420E8E710210E487B
:101D5000FFF78CFF012813D108210B48FFF786FFFE
:101D600001280DD104210848FFF780FF012807D181
:101D700001210648FFF77AFF10B9012001490870D8
:101D80000020CCE71E0000200018014000080140A0
:101D900070B5044600261748058840884543154815
:101DA000808846F60401884216D1124880790128BD
:101DB00012D100200F4988712A2048812B20888168
:101DC0000021084600F078F801200A4988712B208C
:101DD00048812A20888103E00021084600F06CF841
:101DE00000F04AF9002602E003480480761CAE4267
:101DF000FAD370BDD80200200008006C2DE9FC4F1A
:101E000005460E4617469846DDF82C9000200190B6
:101E10002748808846F60401884229D124488079E1
:101E2000012825D1AB46354621480088C01B401EFD
:101E300086B247461E480088A0EB0B00401E1FFAE2
:101E400080F800201A4988712A2048812B20888137
:101E500043463A4631462846CDF80090FFF7CEFF7C
:101E60000120134988712B2048812A2088811CE099
:101E7000781B401C80B20190344614E0214628466D
:101E800000F01AF800F0F8F84FF0000A06E00948F0
:101E9000A0F800900AF101001FFA80FA019882452B
:101EA000F5DB601C84B24445E8DDBDE8FC8F000032
:101EB000D80200200008006C10B503460C466748A5
:101EC000808849F24131884205D06448808845F2D3
:101ED0001031884214D16149488900F0C7F81812BE
:101EE00000F0BEF8D8B200F0BBF85C49888900F079
:101EF000BDF8201200F0B4F8E0B200F0B1F8ABE0A9
:101F00005648808846F6040188421DD1534880799E
:101F1000012804D151480088401EC01A83B24F499D
:101F2000488900F0A3F8181200F09AF8D8B200F02F
:101F300097F84A49888900F099F8201200F090F843
:101F4000E0B200F08DF887E04448808841F66311E4
:101F5000884247D141488079A8B940480088401E4E
:101F6000C01A83B23D49488900F080F8002000F093
:101F700077F8002000F074F8181200F071F8D8B269
:101F800000F06EF816E03549488900F06FF8181235
:101F900000F066F8D8B200F063F830490988491EAD
:101FA000C1F30F2000F05CF82C490978491EC8B233
:101FB00000F056F82949888900F058F8201200F0FE
:101FC0004FF8E0B200F04CF824494988491EC1F3AB
:101FD0000F2000F045F821498978491EC8B200F069
:101FE0003FF839E01D48808845F21051884220D1E1
:101FF0001A49488900F03AF8181200F031F81749E8
:102000004989491C88B200F031F8D8B200F028F8AC
:102010001249888900F02AF8201200F021F80F49AF
:102020008989491C88B200F021F8E0B200F018F864
:1020300012E00A488079012804D108480088401E2F
:10204000C01A83B205494889194600F01FF80349B0
:102050008889214600F01AF810BD0000D80200203F
:1020600001490880704700000008006C01490880A1
:1020700070470000FE07006C024800890249088092
:1020800070470000D8020020FE07006C024A108052
:10209000921C118070470000FE07006C08B50121FA
:1020A000482000F089F82020ADF8000010208DF8BD
:1020B000030003208DF8020069460948FFF74BFD35
:1020C00020210748FFF7DDFD2020ADF8000069461C
:1020D0000448FFF740FD20210248FFF7D2FD08BD6C
:1020E000000C01400018014000BFFEE770470000EF
:1020F00070B5002100230F22C47804B3154C246866
:1021000004F4E064C4F5E064210AC1F10403CA40A8
:10211000447804FA03F184781440214309010E4CF9
:102120000678A155047804F01F050124AC40057819
:102130006D11AD0005F1E025C5F8004109E0047816
:1021400004F01F050124AC40044D0678761145F8D3
:10215000264070BD0CED00E000E400E080E100E00E
:1021600002490143024A1160704700000000FA056D
:102170000CED00E07047000029B1064AD269024325
:10218000044BDA6104E0034AD2698243014BDA610D
:10219000704700000010024029B1064A126902434C
:1021A000044B1A6104E0034A12698243014B1A612D
:1021B000704700000010024029B1064A92690243AC
:1021C000044B9A6104E0034A92698243014B9A618D
:1021D000704700000010024029B1064AD26802434D
:1021E000044BDA6004E0034AD2688243014BDA60B0
:1021F000704700000010024030B50021002200248A
:1022000000232D4D6D6805F00C0121B1042905D086
:10221000082923D105E0294D056022E0274D0560FE
:102220001FE0254D6D6805F47012234D6D6805F4AF
:102230008034022505EB92421CB9214D55430560BF
:102240000BE01D4D6D6805F400351DB11C4D554367
:10225000056002E0194D5543056002E0174D056029
:1022600000BF00BF144D6D6805F0F0010909154D60
:102270006B5C0568DD4045600F4D6D6805F4E061FD
:10228000090A104D6B5C4568DD4085600A4D6D683C
:1022900005F46051C90A0B4D6B5C4568DD40C560B3
:1022A000054D6D6805F44041890B074D6B5CC568B1
:1022B000B5FBF3F5056130BD0010024000127A0055
:1022C00000093D002600002036000020704710B5B0
:1022D00000F002F810BD00000CB500200190009045
:1022E0003348006840F480303149086000BF30480E
:1022F000006800F4003000900198401C01900098A4
:1023000018B90198B0F5A06FF1D12948006800F420
:10231000003010B10120009001E0002000900098F2
:10232000012843D12348006840F01000214908608B
:102330000846006820F0030008600846006840F086
:10234000020008601A484068194948600846406819
:1023500048600846406840F480604860084640682D
:1023600020F47C1048600846406840F4E81048605B
:102370000846006840F08070086000BF0C480068A4
:1023800000F000700028F9D00948406820F00300F0
:10239000074948600846406840F00200486000BFB6
:1023A0000348406800F00C000828F9D10CBD00007B
:1023B0000010024000200240042808D14FF0E02124
:1023C000096941F004014FF0E022116107E04FF08C
:1023D000E021096921F004014FF0E022116170470A
:1023E0007047000010B51348006840F00100114923
:1023F000086008464068104908400E494860084691
:1024000000680E4908400B4908600846006820F43F
:10241000802008600846406820F4FE0048604FF4C1
:102420001F008860FFF753FF4FF000600449086009
:1024300010BD0000001002400000FFF8FFFFF6FE94
:1024400008ED00E010B501210A4800F07FF80128EE
:102450000AD10949086980470021064800F092F82E
:102460006421044800F08CF80121024800F053F880
:1024700010BD0000000800409400002010B50121AC
:10248000094800F063F868B10848008840F400404B
:10249000064908800121044800F03DF80021024867
:1024A00000F03CF810BD00000014004024000020A3
:1024B0007FB505460C4601212020FFF75DFEADF8F3
:1024C0000450ADF800400020ADF80600ADF8020061
:1024D00069460E4800F058F8012211460B4800F0FA
:1024E00046F80121094800F019F837208DF80C0052
:1024F00000208DF80D0002208DF80E0001208DF8CF
:102500000F0003A8FFF7F4FD7FBD0000001400409A
:10251000CA4302827047CA430282704721B10288CF
:1025200042F00102028004E002884FF6FE731A4076
:10253000028070470146888C704702460020138A4B
:102540000B400BB1012000E00020704730B502467F
:10255000002000230024158A05EA0103958905EA75
:10256000010413B10CB1012000E0002030BD1AB10C
:1025700083890B43838102E083898B438381704786
:102580008185704781847047002202881D4B9842E4
:102590000ED01D4B98420BD0B0F1804F08D01B4B92
:1025A000984205D01A4B984202D01A4B984204D157
:1025B0004FF68F731A404B881A43174B984207D037
:1025C000164B984204D04FF6FF431A40CB881A436B
:1025D00002808B8883850B8803850A4B98420BD039
:1025E000094B984208D00E4B984205D00D4B9842AB
:1025F00002D00D4B984201D10B7A038601238382CE
:1026000070470000002C01400034014000040040ED
:1026100000080040000C0040001000400014004082
:102620000040014000440140004801407FB505469C
:102630000C4601210420FFF79FFDADF80850ADF8CE
:1026400004400020ADF80A00ADF8060001A90D48CD
:10265000FFF79AFF012241210A48FFF788FF1E2059
:102660008DF8000003208DF801008DF80200012094
:102670008DF803006846FFF73BFD01210148FFF795
:102680004DFF7FBD0008004010B540F225511D48A8
:1026900000F0DDF810B31B4800F094F9C4B21A48FA
:1026A000008800F40040C8B91748008800F4804052
:1026B00060B10A2C03D000201349088020E01248A2
:1026C000008840F400401049088019E00D2C06D124
:1026D0000D48008840F480400B49088010E00A480B
:1026E0000088C0F30D0009490C5407480088401CBD
:1026F0000549088008460088C72801DD00200880B9
:1027000010BD0000003801401C0000201002002015
:1027100010B540F22551164800F099F8F8B1144868
:1027200000F050F9C4B21348008800F40040B0B97A
:1027300010480088B0F5167F12DA00210E48FFF726
:1027400021FF0C48008818B901210B48FFF7E6FE6D
:1027500008490888411C074A118008490C5405E0C3
:102760000448008840F400400249088010BD000081
:10277000004800402400002000140040E602002031
:1027800021B1828942F40052828104E082894DF6AF
:10279000FF731A408281704710B504462048844276
:1027A00009D101218803FFF717FD00214FF4804074
:1027B000FFF712FD32E01B48844209D10121480491
:1027C000FFF7EAFC00214FF40030FFF7E5FC25E0BD
:1027D0001548844209D101218804FFF7DDFC00215E
:1027E0004FF48020FFF7D8FC18E01048844209D14C
:1027F0000121C804FFF7D0FC00214FF40020FFF7AF
:10280000CBFC0BE00A48844208D101210805FFF700
:10281000C3FC00214FF48010FFF7BEFC10BD000088
:10282000003801400044004000480040004C004097
:102830000050004002460020B1F5007F00D100BFEB
:1028400013880B400BB1012000E00020704770B5E9
:102850000246002400230025002040F66A16B142FB
:1028600000D100BFC1F3421501F01F03012606FA93
:1028700003F3012D02D19689334006E0022D02D1E7
:10288000168A334001E0968A33400C12012606FA7C
:1028900004F41688344013B10CB1012000E000208C
:1028A00070BDF0B50346002400260025002040F648
:1028B0006A17B94200D100BF1846C1F3421401F0B3
:1028C0001F06012707FA06F5012C01D10C3004E0A0
:1028D000022C01D1103000E014301AB107682F43E8
:1028E000076002E00768AF430760F0BD2DE9F047DD
:1028F00086B005460E460024A24600BFA14600272A
:10290000B08900B100BF2F462C8A4CF6FF700440FE
:10291000F08804432C82AC894EF6F3100440B08852
:1029200031890843718908430443AC81AC8A4FF66E
:10293000FF400440B0890443AC8201A8FFF75CFC6F
:102940001F48874202D1DDF810A001E0DDF80CA09D
:10295000A88900F4004040B10AEBCA0000EB0A105D
:1029600031684900B0FBF1F807E00AEBCA0000EB60
:102970000A1031688900B0FBF1F86420B8FBF0F070
:1029800004012009642101FB1089A88900F400409A
:1029900040B1322000EBC900B0FBF1F000F00700BD
:1029A000044308E0322000EB09106421B0FBF1F091
:1029B00000F00F0004432C8106B0BDE8F087000052
:1029C0000038014001468888C0F308007047C1F311
:1029D00008028280704700BFFEE7490050EAC1202C
:1029E00018BF04204A0D18BF40F0010040F2FF72EA
:1029F000B2EB515F08BF40F00200012808BF05207C
:102A0000704730380A2801D20120704700207047F3
:102A1000014600BF704700002DE9F04F87B0002647
:102A20000027F34B0FCB03AC0FC440F2E7354FF058
:102A3000000A4FF000084FF000096421002002F066
:102A400031F902903222EBA1EBA000F0DFFFED485C
:102A50000368ED48EDA102680298FDF76DFC6A1C61
:102A6000E4A1029800F0D2FFEE480368EE48EFA11F
:102A700002680298FDF760FC6A1CF1A1029800F060
:102A8000C5FF00BF1422F1A1F2A000F0BFFF002893
:102A9000F8D100BF1422F2A1EEA000F0B7FF002889
:102AA000F8D14FF6FF70FFF773F94FF47840EE4915
:102AB0000880EEA0FDF734FC3222CEA1F1A000F098
:102AC000A5FF4FF4FA7001F075FFF148F1A102681B
:102AD0000298FDF731FC3222C6A1029800F096FF61
:102AE0004FF4FA7001F066FF3222C2A1EEA000F0AE
:102AF0008DFF00BFF0481E210268322000F06EFEFC
:102B0000044604F00200002828D04FF6FF70FFF7BB
:102B10003FF94FF47840D4490880E8A0FDF700FC65
:102B2000ECA0FDF7FDFBDA4803AAF2A103680298C6
:102B3000FDF702FC4FF6FF70FFF72AF9DFA0FDF763
:102B4000EFFBE4A0FDF7ECFBC822AAA1029800F07D
:102B50005DFF204600F0CAFB04463EE004F00100A1
:102B6000002836D04FF6FF70FFF712F94FF4784087
:102B7000BD490880E6A0FDF7D3FBD6A0FDF7D0FB4A
:102B8000C34803AAE8A103680298FDF7D5FB14E047
:102B90004FF6FF70FFF7FCF84FF47840B249088019
:102BA000E8A0FDF7BDFBEBA0FDF7BAFB0020FFF7A7
:102BB0008BF80646042E00D19CE7C8228DA102980E
:102BC00000F024FF0028E3D1204600F08FFB0446EC
:102BD00003E0204600F08AFB04464FF6FF70FFF743
:102BE000D7F84FF47840A0490880E1A0FDF798FBA2
:102BF000B8A0FDF795FB4FF6FF703E23EF22322180
:102C000000900F20FFF7FAF8E0A0FDF789FB4FF6E0
:102C1000FF705C23EF22502100900F20FFF7EEF8A9
:102C200041210F2000F0A2FAE2A0FDF779FBE4A019
:102C3000FDF776FBE5A0FDF773FBE6A0FDF770FB63
:102C4000E7A0FDF76DFB77480068E8490968CDE922
:102C500000107548E6A2C32103680F2001F0F2FAC4
:102C60001F208149088004F00300E74A52F8201031
:102C7000E6A0FDF755FB2011E34A52F82010E3A02F
:102C8000FDF74EFB0020E2490880A7E00020FFF797
:102C90001BF80646042E02D14FF0000A9FE0012ED9
:102CA0001AD10A2095FBF0FB5A46DAA10298FDF7EB
:102CB00043FBD6A00299FDF733FBC8224DA1DCA04F
:102CC00000F0A4FEC82001F075FE642249A102981C
:102CD00000F0D6FE64271BE0022E19D10A2095FBD6
:102CE000F0FB5A46D6A10298FDF726FBC7A0029931
:102CF000FDF716FBC8223FA1D8A000F087FEC82030
:102D000001F058FE64223BA1029800F0B9FE64274E
:102D10000FB1781EC7B2012F08D14FF6FF7089237B
:102D2000EF227D2100905420FFF768F8681C85B2DF
:102D30000A2001F03FFEB648008800F4004000B3CE
:102D4000B3480088C0F30E080020C84901F8080005
:102D50004246C7A10298FDF7EFFACAA00299FDF713
:102D6000DFFAC249C9A0FDF7DBFA0020A8490880B4
:102D7000BE49204601F0B8FFB9F12B0F02D04FF445
:102D80007A7500E00025B5F57A7F16D14FF6FF7011
:102D90008A23EF227D2100904520FFF72FF800F0D5
:102DA000C3F98146B9F12B0F03D1BCA0FDF7B8FAE6
:102DB00002E0BDA0FDF7B4FA0025142095FBF0F168
:102DC00000FB115038B9BB48006808B9012000E089
:102DD0000020B8490860012000F06EF956E700BFF6
:102DE0000020029901F04CFF504607B0BDE8F08F7B
:102DF000C86200084F4B000041542B43574D4F44CD
:102E0000453D3300A00100209801002041542B4390
:102E1000575341503D222573222C222573222C31F9
:102E20002C340000940100208C01002041542B43DD
:102E3000574A41503D222573222C2225732200003F
:102E40005749464920474F5420495000535441495F
:102E50005000000041542B434946535200000000EB
:102E600041504950000000002000002041544B2DEB
:102E70004553502041502B535441C4A3CABDB2E224
:102E8000CAD4000041542B4349504D55583D3100A0
:102E90008801002041542B43495053455256455216
:102EA0003D312C257300000041542B4349505354AD
:102EB0004F3D313230300000A401002041544B2DF1
:102EC00045535020574946492D535441B2E2CAD484
:102ED00000000000D5FDD4DAC5E4D6C341544B2D23
:102EE000455350C4A3BFE92CC7EBC9D4B5C82E2E97
:102EF0002E00000041542B43495053544152543D3D
:102F0000302C22554450222C222573222C2573006C
:102F100041544B2D45535020574946492D53544158
:102F200020B2E2CAD400000041542B43495053540C
:102F30004152543D302C22544350222C22257322DE
:102F40002C257300574B5F55503AB7B5BBD8D6D830
:102F5000D1A1000041544B2D45535020C1ACBDD3ED
:102F600054435020536572766572CAA7B0DC0000E6
:102F700041544B2D45535020574946492D535441F8
:102F80002B415020B2E2CAD400000000574B5F55DD
:102F9000503ACDCBB3F6204B4559303A494430B77F
:102FA000A2CBCD204B4559313A494431B7A2CBCDC4
:102FB00000000000C1ACBDD3D7B4CCAC3A000000D7
:102FC000535441C4A3CABD3A000000004150C4A3F9
:102FD000CABD3A00B7A2CBCDCAFDBEDD3A000000A3
:102FE000BDD3CAD5CAFDBEDD3A0000009001002065
:102FF000C7EBC9E8D6C3C2B7D3C9C6F7CEDECFDFA9
:10300000B2CECAFDCEAA3A00B0010020257300005E
:103010002400002041544B2D38323636C4A3BFE97A
:10302000494430B7A2CAFDBEDD253032640D0A0026
:1030300041542B43495053454E443D302C323500CA
:1030400041544B2D38323636C4A3BFE9494431B719
:10305000A2CAFDBEDD253032640D0A0041542B4367
:10306000495053454E443D312C323500E602002094
:10307000CAD5B5BD2564D7D6BDDA2CC4DAC8DDC83B
:10308000E7CFC20025730D0A00000000BDD3CAD5EA
:10309000CAFDBEDD3A25730D0A000000C1ACBDD3E8
:1030A000B3C9B9A600000000C1ACBDD3CAA7B0DC4B
:1030B000000000009481214210B504460A480088AF
:1030C00000F4004070B1002007490988C1F30E01E7
:1030D000064A5054114606A0FDF722F914B100200B
:1030E0000149088010BD000024000020E6020020F5
:1030F0002573000070B5044600250948008800F4D7
:10310000004058B1002006490988C1F30E01054A64
:10311000505421461046FDF7BFFA0546284670BDBB
:1031200024000020E602002070B500F037FC08B152
:10313000002070BD322205A105A000F067FC08A0A8
:10314000FFF7D8FF05462C782046F2E73A0000004A
:1031500041542B43495053544154555300000000EF
:103160002B4349505354415455533A002DE9F047ED
:1031700081468A462021002001F094FD044620214A
:10318000002001F08FFD05462021002001F08AFD7E
:1031900006462021002001F085FD07462021002061
:1031A00001F080FD8046322226A127A000F02EFCEF
:1031B00010B10020387043E026A0FFF79BFF0446C3
:1031C00026A1A01DFDF768FA05462E4600202870AE
:1031D000A71D23483A4623A103684046FDF7ACF8F3
:1031E000414625A0FDF79CF824A1701CFDF754FA78
:1031F00004461AA1E01DFDF74FFA0546002028708D
:10320000E71D17483A461FA103684046FDF794F8AA
:10321000414619A0FDF784F82146002001F030FD59
:103220002946002001F02CFD3146002001F028FD48
:103230003946002001F024FD4146002001F020FD28
:10324000BDE8F0874F4B000041542B434946535291
:1032500000000000415049502C22000022000000D4
:103260008801002041502049503A257320B6CBBF39
:10327000DA3A2573000000002573000053544149D9
:10328000502C22005354412049503A257320B6CB8C
:10329000BFDA3A257300000070B5054632220DA151
:1032A0000DA000F0B3FB10B10020287070BD0DA080
:1032B000FFF720FF04460BA1601CFDF7EDF9064661
:1032C00000203070621C08A12846FDF735F800BFC9
:1032D000ECE700004F4B000041542B43494653524A
:1032E0000000000022000000257300007FB50446A6
:1032F000404B0FCB8DE80F002021002001F0D2FCC5
:10330000064600BF3C481E214268322000F066FAA3
:1033100044EA0010C4B204F02000002822D04FF686
:10332000FF70FEF735FD04F0030038B133486A46FC
:1033300033A103683046FCF7FFFF06E02F486A46DA
:1033400036A103683046FCF7F7FFC82001F032FBD6
:103350004FF6FF70FEF71CFDC82237A1304600F083
:1033600055FB40E004F0100000283CD04FF6FF7001
:10337000FEF70EFD4FF478403049088030A0FCF78E
:10338000CFFF35A0FCF7CCFF04F0030038B11B4899
:103390006A4639A103683046FCF7CEFF06E01748BD
:1033A0006A463CA103683046FCF7C6FF14E04FF6BE
:1033B000FF70FEF7EDFC4FF47840204908803CA0F8
:1033C000FCF7AEFF3FA0FCF7ABFF0020FEF77CFC54
:1033D0000546042D00D195E7C82217A1304600F01C
:1033E00015FB0028E3D13146002001F049FC2046BE
:1033F00004B070BDD8620008A4010020880100203C
:1034000041542B43495053544152543D312C225581
:103410004450222C222573222C25730041542B4327
:10342000495053544152543D302C22554450222C83
:10343000222573222C2573004F4B00002000002012
:1034400041544B2D45535020574946492D53544123
:1034500020B2E2CAD40D0A00D5FDD4DAC5E4D6C341
:1034600041544B2D455350C4A3BFE92CC7EBC9D4DD
:10347000B5C82E2E2E0D0A0041542B4349505354EB
:103480004152543D312C22544350222C2225732288
:103490002C25730041542B43495053544152543D01
:1034A000302C22544350222C222573222C257300C9
:1034B000574B5F55503AB7B5BBD8D6D8D1A10D0AF6
:1034C0000000000041544B2D45535020C1ACBDD3EA
:1034D00054435020536572766572CAA7B0DC0D0A5A
:1034E000000000002DE9F04780468946174620215C
:1034F000002001F0D7FB04462021002001F0D2FB80
:1035000005462021002001F0CDFB06461F20594929
:103510000880142258A159A000F078FA142256A16C
:1035200059A000F073FA4FF47A7001F043FA4FF4A7
:103530007A7001F03FFA4FF47A7001F03BFA4FF4E1
:103540007A7001F037FA52480368524852A1026873
:103550002046FCF7F1FE4FF47A7247A1204600F0B6
:1035600055FA002F77D1142243A151A000F04EFA52
:1035700051A0FFF7BFFD044653A104F10C00FDF775
:103580008BF805460020287050A153A0FCF7C8FE18
:1035900004F10C0151A0FCF7C3FE142250A153A06A
:1035A00000F034FA4BA0FFF7A5FD044652A0FCF74B
:1035B000B7FE60783138534A52F8201047A0FCF724
:1035C000AFFE142250A152A000F020FA53A0FFF742
:1035D00091FD044651A1601CFDF75EF805462E469C
:1035E000002028704EA0FCF79BFE611C3BA0FCF75E
:1035F00097FE4AA1701CFDF74FF8044647A1601CD6
:10360000FDF74AF805462E460020287046A0FCF734
:1036100087FE611C31A0FCF783FE45A1701CFDF7FD
:103620003BF8044642A1601CFDF736F80546002031
:10363000287040A0FCF774FE611C28A0FCF770FE07
:103640003EA0FCF76DFE687830383F4A52F82010F3
:1036500022A0FCF765FE2146002001F011FB29465F
:10366000002001F00DFB3146002001F009FBBDE810
:10367000F0870000200000204F4B000041542B43F6
:10368000574D4F44453D320041542B525354000096
:10369000A00100209801002041542B435753415072
:1036A0003D222573222C222573222C312C3400003C
:1036B00041542B474D52000053444B2076657273A2
:1036C000696F6E3A0000000028000000B9CCBCFE13
:1036D000B0E6B1BE3A0000002573000025730A0071
:1036E0002B43574D4F44453A0000000041542B43B3
:1036F000574D4F44453F0000CDF8C2E7C4A3CABDB3
:103700003A000000A40100202B43575341503A00D7
:1037100041542B43575341503F000000220000000A
:1037200053534944BAC53A00C3DCC2EB3A00000027
:103730002C000000CDA8B5C0BAC53A00BCD3C3DC8C
:10374000B7BDCABD3A000000BC01002070B50546F7
:103750000C460BA0FCF7E4FD10A0FCF7E1FD12A065
:10376000FCF7DEFD15A0FCF7DBFD18A0FCF7D8FD8B
:1037700004F17D0081B200222846FFF7B3FE70BD40
:1037800041544B5F455350383236362057494649ED
:10379000C4A3BFE9B2E2CAD40D0A0000C7EBD1A1AD
:1037A000D4F13A0D0A0000004B4559303A574946CA
:1037B00049205354412B41500D0A00004B455931CB
:1037C0003A57494649205354410D0A00574B5F551B
:1037D000503A574946492041500D0A002DE9F0471B
:1037E00081468A4616460025002700244FF6FF70C2
:1037F000FEF7CEFA4FF478403C4908803221002091
:1038000001F050FA8046324639A14046FCF794FD5B
:1038100041463CA0FCF784FD3CA0FCF781FD3FA0A5
:10382000FCF77EFD41A0FCF77BFD44A0FCF778FD92
:1038300045A0FCF775FD48A0FCF772FD4AA0FCF717
:103840006FFD4DA0FCF76CFD46E00020FEF73CFA52
:103850000546002D2CD0042D00D13EE0012D06D1CF
:10386000022C02DA601CC4B209E0002407E0022D39
:1038700005D1002C02DD601EC4B200E0022423A0AA
:10388000FCF74EFD25A0FCF74BFD28A0FCF748FDFA
:103890002AA0FCF745FD2CA0FCF742FD2EA0FCF76A
:1038A0003FFD31A0FCF73CFD611C37A0FCF738FD63
:1038B0000A2001F07FF80120FFF7FEFB3846791C53
:1038C000CFB2142808D100273348006808B9012076
:1038D00000E0002030490860B7E700BF4146002003
:1038E00001F0CEF92046BDE8F0870000200000205E
:1038F000257320B9A4D7F7C4A3CABDD1A1D4F10DB3
:103900000A00000025730D0A000000004B455930E5
:103910003ACFC2D2BBB8F60D0A0000004B45593170
:103920003AC9CFD2BBB8F60D0A000000574B5F551D
:10393000503AC8B7B6A80D0A00000000C7EBD1A1E5
:10394000D4F13A0D0A000000312E20544350B7FE46
:10395000CEF1C6F70D0A0000322E20544350BFCDE1
:10396000BBA7B6CB0D0A0000332E20554450C4A38C
:10397000CABD0D0A00000000B5B1C7B0D1A1D4F195
:103980003A20310D0A000000B5B1C7B0D1A1D4F181
:103990003A2025640D0A00009481214210B500BF31
:1039A0001748008800F040000028F9D02B20144967
:1039B000091D08800F2000F0FDFF00BF104800889F
:1039C00000F040000028F9D02B200D49091D088087
:1039D0000F2000F0EFFF00BF0948008800F0400012
:1039E0000028F9D02B200649091D08804FF4FA70F1
:1039F00000F0E0FF142203A103A000F007F810BDBF
:103A0000004800404F4B0000415400002DE9F041B8
:103A100006460D461446002700201349088031460B
:103A200012A001F0BBFAE5B1DCB113E00A2000F00E
:103A3000C1FF0D48008800F4004058B12846FFF748
:103A400059FB20B129460BA0FCF76AFC06E00020D8
:103A500005490880601E80B2041EE7D100BF04B98A
:103A600001273846BDE8F0812400002025730D0AA7
:103A70000000000061636B3A25730D0A000000002E
:103A80002DE9F04106460D46144600270020114955
:103A90000880314610A001F081FAC5B1BCB10FE039
:103AA0000A2000F087FF0B48008800F4004038B17E
:103AB0002846FFF71FFB00B106E0002005490880FB
:103AC000601E80B2041EEBD100BF04B90127384646
:103AD000BDE8F0812400002025730000002542A0ED
:103AE000FCF71EFC10E0FFF759FFC82245A146A0D5
:103AF000FFF78CFF48A0FCF713FC4FF4487000F070
:103B000059FF4AA0FCF70CFC14223EA14CA0FFF781
:103B10007DFF0028E7D100BF14223AA149A0FFF79A
:103B200075FF0028F8D11E212020FFF70FFE59E075
:103B30000A2000F03FFF0120FFF7BEFA0020FEF749
:103B4000C3F80446002C27D0012C04D0022C0BD043
:103B5000042C1BD111E03DA0FCF7E2FB42A0FCF7D6
:103B6000DFFBFEF759FF11E049A0FCF7D9FB3EA0AF
:103B7000FCF7D6FB00F09EFB08E04BA0FCF7D0FB67
:103B800039A0FCF7CDFB00F0CBF800BF00BF1E2131
:103B90002020FFF7DBFD0025142095FBF0F100FB52
:103BA000115038B94648006808B9012000E00020EB
:103BB00043490860C82095FBF0F100FB115078B92B
:103BC00040A0FCF7ADFB46A0FCF7AAFB47A0FCF722
:103BD000A7FB4BA0FCF7A4FB4DA0FCF7A1FB002525
:103BE000681CC5B2A4E7000041544B2D4553503822
:103BF0003236362057494649C4A3BFE9B2E2CAD497
:103C00000D0A00004F4B000041542B4349504D4FCB
:103C100044453D3000000000CEB4BCECB2E2B5BD7E
:103C2000C4A3BFE92121210D0A000000B3A2CAD418
:103C3000C1ACBDD3C4A3BFE92E2E2E0D0A000000D7
:103C400041540000415445300000000041544B2DC8
:103C500045535020574946492D41502B535441203C
:103C6000B2E2CAD40D0A0000D5FDD4DAC5E4D6C349
:103C700041544B2D45535038323636C4A3BFE9A3C7
:103C8000ACC7EBC9D4B5C82E2E2E0D0A000000001B
:103C900041544B2D45535020574946492D535441CB
:103CA00020B2E2CAD40D0A0041544B2D4553502096
:103CB000574946492D415020B2E2CAD40D0A0000AE
:103CC0009481214241544B5F45535038323636205F
:103CD00057494649C4A3BFE9B2E2CAD40D0A00005D
:103CE000C7EBD1A1D4F13A0D0A0000004B45593081
:103CF0003A57494649205354412B41500D0A000080
:103D00004B4559313A57494649205354410D0A0011
:103D1000574B5F55503A574946492041500D0A00CC
:103D20002DE9F04F87B000240027BE4B0FCB03AD29
:103D30000FC540F2E73500200290814682462021DF
:103D400000F0B0FF804600BFB7481E214268322015
:103D5000FFF744FD044604F0020000281BD0B3A086
:103D6000FCF7DEFAB7A0FCF7DBFABE4803AABEA157
:103D700003684046FCF7E0FA6422C2A1C2A0FFF744
:103D800045FE00BF4FF4FA72BEA14046FFF73EFE6B
:103D90000028F7D146E004F0010000282CD0A3A0B1
:103DA000FCF7BEFAA7A0FCF7BBFA1422B5A1B6A097
:103DB000FFF72CFEAB4803AAB6A103684046FCF708
:103DC000BBFA0CE0BAA0FCF7ABFABDA0FCF7A8FA6E
:103DD0000020FDF779FF0646042E00D1B4E7C82283
:103DE000A8A14046FFF712FE0028EBD1C822A5A1EA
:103DF000BAA0FFF70BFE15E08CA0FCF791FA91A09A
:103E0000FCF78EFA14229FA1B8A0FFF7FFFD95489A
:103E1000B9A102684046FCF78FFA142299A14046E6
:103E2000FFF7F4FD81A0FCF77BFA86A0FCF778FA97
:103E3000B6A0FCF775FAC82000F0BCFDB9A0FCF7ED
:103E40006FFA03A8FFF728FA864803AABDA1036802
:103E50004046FCF771FA4146BFA0FCF761FAC04842
:103E60000068C0490968CDE90010BF48BFA2B4216D
:103E700003681E2000F0E6F9C24850F82410C2A0E2
:103E8000FCF74EFA0020C3490880C0E00020FDF78F
:103E90001BFF0646042E09D100200290FFF77EFD8D
:103EA000142278A1BCA0FFF7B1FDB1E0012E5CD1D6
:103EB000032C01D0022C1DD10A2095FBF0FBB14848
:103EC00050F824205B46B8A14046FCF735FA41463D
:103ED000BBA0FCF725FAC8226AA1BDA0FFF796FD9A
:103EE000C82000F067FD642266A14046FFF7C8FDC8
:103EF00064273AE0012C1BD1FFF750FD142261A189
:103F0000B7A0FFF783FD0A2095FBF0FB9D4850F812
:103F100024205B46A4A14046FCF70EFA4146A8A027
:103F2000FCF7FEF94146B1A001F038F864271CE027
:103F30000A2095FBF0FB934850F824205B469AA199
:103F40004046FCF7F9F941469DA0FCF7E9F9C82283
:103F50004CA1A7A0FFF75AFDC82000F02BFD64225A
:103F600048A14046FFF78CFD64270FB1781EC7B209
:103F7000681C85B2052000F01DFD8648008800F40D
:103F8000004000B383480088C0F30E0900209C491C
:103F900001F809004A469BA14046FCF7CDF941468D
:103FA0006DA0FCF7BDF996499BA0FCF7B9F900207C
:103FB000784908809249204600F096FEBAF12B0F0E
:103FC00002D04FF47A7500E00025B5F57A7F0DD167
:103FD000FFF7AAF88246BAF12B0F03D192A0FCF7A3
:103FE0009FF902E093A0FCF79BF90025142095FBB4
:103FF000F0F100FB115038B99148006808B9012070
:1040000000E000208E4908600120FFF755F83DE7E9
:1040100000BF4146002000F033FE029807B0BDE823
:10402000F08F0000E8620008A401002041544B2DED
:1040300045535020574946492D415020B2E2CAD439
:104040000D0A0000D5FDD4DAC5E4D6C341544B2D8A
:10405000455350C4A3BFE92CC7EBC9D4B5C82E2E15
:104060002E0D0A008801002041542B43495053541F
:104070004152543D22554450222C222573222C2596
:10408000730000004F4B000041542B4349504D55E5
:10409000583D300041542B43495053544152543DF4
:1040A00022544350222C222573222C257300000019
:1040B000574B5F55503AB7B5BBD8D6D8D1A1000001
:1040C00041544B2D45535020C1ACBDD354435020D7
:1040D000536572766572CAA7B0DC000041542B4369
:1040E00049504D4F44453D310000000041542B43A1
:1040F00049504D55583D310041542B43495053458B
:10410000525645523D312C2573000000C5E4D6C3FC
:1041100041544B2D455350C4A3BFE9B3C9B9A6219F
:104120000D0A0000574B5F55503ACDCBB3F6B2E2C3
:10413000CAD420204B4559303AB7A2CBCDCAFDBED8
:10414000DD0D0A004950B5D8D6B73A257320B6CB55
:10415000BFDA3A257300000025730D0A0000000045
:10416000A00100209C01002098010020C7EBD3C3D0
:10417000C9E8B1B8C1ACBDD357494649C8C8B5E3D1
:104180003A000000B0010020D7B4CCAC3A25730D42
:104190000A0000002400002041542B4349504D4F99
:1041A00044453D300000000041544B2D3832363636
:1041B0002573B2E2CAD4253032640D0A0000000033
:1041C000B7A2CBCDCAFDBEDD3A25730D0A000000B3
:1041D00041542B43495053454E443D323500000075
:1041E00041542B43495053454E4400002573000071
:1041F00041542B43495053454E443D302C323500F9
:10420000E6020020CAD5B5BD2564D7D6BDDA2CC4D8
:10421000DAC8DDC8E7CFC200BDD3CAD5CAFDBEDD4E
:104220003A25730D0A000000C1ACBDD3B3C9B9A6CD
:104230000D0A0000C1ACBDD3CAA7B0DC0D0A000056
:10424000948121422DE9F0478046894614461D4657
:10425000DDE9086721460DA0FCF762F80CA0FCF729
:104260005FF829460CA0FCF75BF80DA0FCF758F8A6
:10427000314609A0FCF754F80CA0FCF751F8394678
:1042800005A0FCF74DF8BDE8F0870000257300009D
:10429000535349443A00000025730D0A0000000002
:1042A000BCD3C3DCB7BDCABD3A000000C3DCC2EB5F
:1042B0003A0000002DE9F04F87B00026FA4B0FCBF3
:1042C00003AC0FC440F2E7344FF0000900274FF071
:1042D00000082021002000F0E5FC83463222F3A1F3
:1042E000F3A0FFF793FB1422F0A1F4A0FFF78EFBDD
:1042F000601C00F05FFB601C00F05CFB601C00F0C9
:1043000059FB601C00F056FBEE480368EE48EFA135
:1043100002685846FCF710F800BF4FF49672F0A1FF
:104320005846FFF773FB0028F7D100BFEF481E2166
:1043300002683220FFF752FAED4909780843EC4948
:1043400008700846007800F0020000282FD04FF6D1
:10435000FF70FDF71DFD4FF47840E6490880E6A1A7
:10436000EBA0FBF7DDFFEBA1E9A0FBF7D9FFF148DC
:1043700003AAF1A103685846FBF7DEFFC82000F04E
:1043800019FB1422C9A1F3A0FFF740FBC82000F0DD
:1043900011FB4FF6FF70FDF7FBFC00BF4FF4FA7204
:1043A000C2A15846FFF732FB0028F7D166E0D0489B
:1043B000007800F00100002840D04FF6FF70FDF7B4
:1043C000E7FC4FF47840CB490880CBA1D0A0FBF7A5
:1043D000A7FFD0A1CEA0FBF7A3FF1422B3A1DDA0BD
:1043E000FFF714FBD34803AADDA103685846FBF787
:1043F000A3FF16E04FF6FF70FDF7CAFC4FF47840BC
:10440000BC490880DDA1C2A0FBF78AFFDFA1C0A0E4
:10441000FBF786FF0020FDF757FC0546042D00D171
:1044200084E7C822A1A15846FFF7F0FA0028E1D19D
:10443000C8229EA1DCA0FFF7E9FA1FE04FF6FF704B
:10444000FDF7A6FC4FF47840AA490880AAA1B0A0C5
:10445000FBF766FFAFA1AEA0FBF762FF142293A1AA
:10446000D5A0FFF7D3FAB348D6A102685846FBF7A8
:1044700063FF32228DA15846FFF7C8FA4FF6FF704E
:10448000FDF786FC4FF478409A4908809AA1A0A0D5
:10449000FBF746FF9FA19EA0FBF742FF4FF6FF7080
:1044A0003E23EF22322100901E20FDF7A7FCCAA177
:1044B00097A0FBF735FF4FF6FF705C23EF225021EA
:1044C00000901E20FDF79AFC03A8FEF7E5FE994830
:1044D00003AAC9A103685846FBF72EFF59468CA0D2
:1044E000FBF71EFFC9A18AA0FBF71AFFC9A188A08C
:1044F000FBF716FFC9A186A0FBF712FFCAA184A093
:10450000FBF70EFF6F480068CA490968CDE9001043
:104510006D48C9A2B42103681E20FFF793FE1F2037
:1045200074490880CA48724A127850F8221078A05C
:10453000FBF7F6FE0020C749088000E20020FDF7E7
:10454000C3FB0546042D09D14FF00009FFF726FAF9
:10455000142256A1C0A0FFF759FAF1E1012D68D14C
:1045600063480078032803D06148007802281FD1EF
:104570000A2094FBF0FAB6485D49097850F82120EA
:104580005346B9A15846FBF7D7FE594660A0FBF742
:10459000C7FEC82245A1BAA0FFF738FAC82000F02C
:1045A00009FA642241A15846FFF76AFA642640E0FE
:1045B0004F48007801281DD1FFF7F0F914223BA1E4
:1045C000B3A0FFF723FA0A2094FBF0FAA048484969
:1045D000097850F821205346B0A15846FBF7ACFEAD
:1045E00059464BA0FBF79CFE594649A000F0D6FC6B
:1045F00064261EE00A2094FBF0FA95483C490978AD
:1046000050F82120534698A15846FBF795FE59468D
:104610003FA0FBF785FEC82224A1A5A0FFF7F6F96D
:10462000C82000F0C7F9642220A15846FFF728FAF5
:1046300064260EB1701EC6B2012E08D14FF6FF706F
:104640007023EF22642100905420FDF7D7FB601CFB
:1046500084B20A2000F0AEF97E48008800F40040E1
:1046600000B37C480088C0F30E0700209449C85569
:104670003A4694A15846FBF75FFE594696A0FBF7D1
:104680004FFE8F4996A0FBF74BFE00207149088032
:104690008B491748007800F027FBB8F12B0F02D0A8
:1046A0004FF47A7425E123E1F86200084F4B0000D3
:1046B00041542B43574D4F44453D310041542B52FB
:1046C00053540000940100208C01002041542B43DE
:1046D000574A41503D222573222C22257322000087
:1046E0005749464920474F5420495000A401002013
:1046F0000C0200202000002041544B2D4553502037
:10470000574946492D53544120B2E2CAD400000013
:1047100025730000D5FDD4DAC5E4D6C341544B2D32
:10472000455350C4A3BFE92CC7EBC9D4B5C82E2E3E
:104730002E0000008801002041542B43495053545F
:104740004152543D22554450222C222573222C25BF
:104750007300000041542B4349504D55583D3000E3
:1047600041542B43495053544152543D22544350D9
:10477000222C222573222C2573000000574B5F55F5
:10478000503AB7B5BBD8D6D8D1A1000041544B2D73
:1047900045535020C1ACBDD354435020536572766D
:1047A0006572CAA7B0DC000041542B4349504D4FFD
:1047B00044453D310000000041542B4349504D55C4
:1047C000583D310041542B434950534552564552B0
:1047D0003D312C2573000000574B5F55503ACDCB2F
:1047E000B3F6B2E2CAD420204B4559303AB7A2CB37
:1047F000CDCAFDBEDD0000004950B5D8D6B73A2578
:104800007320B6CBBFDA3A2573000000D7B4CCAC26
:104810003A000000C4A3CABD3A000000B7A2CBCD45
:10482000CAFDBEDD3A000000BDD3CAD5CAFDBEDD5B
:104830003A00000090010020C7EBC9E8D6C3C2B718
:10484000D3C9C6F7CEDECFDFB2CECAFDCEAA3A00BC
:10485000B00100202400002041542B4349504D4F0B
:1048600044453D300000000041544B2D383236366F
:104870002573B2E2CAD4253032640D0A000000006C
:1048800041542B43495053454E443D3235000000BE
:1048900041542B43495053454E44000041544B2D45
:1048A000383236362573B2E2CAD425640D0A0000C8
:1048B00041542B43495053454E443D302C32350032
:1048C000E6020020CAD5B5BD2564D7D6BDDA2CC412
:1048D000DAC8DDC8E7CFC20025730D0A000000006A
:1048E000BDD3CAD5CAFDBEDD3A25730D0A0000004E
:1048F0000024B4F57A7F11D1FEF716FC8046B8F19A
:104900002B0F05D113A1AFF2F810FBF709FD04E05E
:1049100013A1AFF20420FBF703FD0024142094FB45
:10492000F0F100FB114038B91048006808B90120C7
:1049300000E000200D4908600120FEF7BDFBFDE509
:1049400000BF5946002000F09BF9484607B0BDE87B
:10495000F08F0000C1ACBDD3B3C9B9A60000000000
:10496000C1ACBDD3CAA7B0DC0000000094812142D5
:1049700010B56FF00400FDF71FFD0A4800680A49F2
:10498000B0FBF1F0094908700846007800EB4001DF
:10499000C1EBC0104FF6FF7101EAC0000449088066
:1049A00010BD00000000002000127A00140000205A
:1049B000160000200146114A12884A434FF0E023B6
:1049C0005A6100229A611A46126942F001021A6184
:1049D00000BF4FF0E022106900F001021AB100F4AC
:1049E0008032002AF5D04FF0E022126922F0010255
:1049F0004FF0E0231A6100229A61704716000020F0
:104A00000146114A12784A434FF0E0235A610022CE
:104A10009A611A46126942F001021A6100BF4FF012
:104A2000E022106900F001021AB100F48032002A7D
:104A3000F5D04FF0E022126922F001024FF0E0239E
:104A40001A6100229A6170471400002000BF054AD5
:104A5000128802F04002002AF9D0C2B2014B1B1D9D
:104A60001A8070470038014010B5FFF781FF4FF4FE
:104A7000A060FDF775FB4FF4E13000F0B7FA134882
:104A8000416848208847FDF709FBFDF7FFF8FCF770
:104A90006FFF4FF4E13000F0F9FA002000F05AF80F
:104AA00002E00BA0FBF73CFCFCF7B2FF0028F8D1BA
:104AB0004FF47A70FFF77EFF00200949086009492A
:104AC000C1F89401FFF70AF8002010BD94000020FF
:104AD0004448543131204572726F720D0A00000053
:104AE000A0812142000023422DE9F04104460E46F8
:104AF0001548005D38B914481838016820468847C1
:104B00000120BDE8F081114850F82400B04219D9C5
:104B10000F4850F82400B6FBF0F10B48083850F865
:104B2000240030F81120002508E00023064808384A
:104B300050F824004F1920F817306D1C9542F4DB13
:104B40000020DEE70220DCE754000020C0620008FD
:104B5000B862000810B504460C4951F824104A0008
:104B60000B4951F82400002100F0B0F8094951F830
:104B700024200749083951F82400002100F0A6F844
:104B8000012103480830015510BD0000B062000843
:104B90004C000020C06200082DE9F04704460F4693
:104BA0000025A9462348005D20B92248183801682D
:104BB000204688471FB94FF0FF30BDE8F0871E48F8
:104BC00050F82400B7FBF0F61B4850F82400B7FB60
:104BD000F0F100FB117000B1761C184850F8240069
:104BE000451E22E01348083850F8240030F815001C
:104BF00010B909F1010901E04FF00009B14513D1E5
:104C00004FF0000809E00B48083850F8240005EB85
:104C1000080220F8126008F10108B045F3D30648F5
:104C200050F824006843C8E76D1E002DDADA4FF013
:104C3000FF30C2E754000020B8620008B0620008EC
:104C400010B501460023002207E00B4850F8210070
:104C500030F8120000B15B1C521C084850F82100CB
:104C60009042F2D864205843044C54F82140B0FBE1
:104C7000F4F0C0B210BD00004C000020B06200088B
:104C800070B505460C4604B970BD054850F82500BE
:104C9000261A31462846FFF727FF00BFF4E7000039
:104CA0004400002070B504460E4631462046FFF70A
:104CB00073FF0546681C08B9002070BD024850F813
:104CC00024002844F9E700004400002030B50346E2
:104CD00001E003F8011B141EA2F10102F9D130BD5D
:104CE000014608687047000070B59CB006460D4646
:104CF0000024642103A8FBF700FD0020029001902E
:104D00004FF41671FFF7CEFF0446012E05D12A4657
:104D100037A12046FBF710FB0AE036A12846FBF737
:104D2000BBFC044624B1641C214633A0FBF7F8FA0F
:104D300038A12046FBF708FD50B90020374908602C
:104D400037A0FBF7EDFA39A1304600F0C7F848E08C
:104D50003AA12046FBF7F8FC50B901202F49086022
:104D600039A0FBF7DDFA3BA1304600F0B7F838E098
:104D70003CA12046FBF7E8FC50B900203C49086004
:104D80003CA0FBF7CDFA3EA1304600F0A7F828E0A2
:104D90003FA12046FBF7D8FC50B9012034490860F8
:104DA0003DA0FBF7BDFA3FA1304600F097F818E0B0
:104DB00040A12046FBF7C8FC98B901A902A8FCF75E
:104DC0007CFE9DF804309DF808203CA103A8FBF769
:104DD000B3FA03A906A0FBF7A3FA03A9304600F033
:104DE0007DF821460020FFF74BFF1CB070BD00008E
:104DF000257300003A000000BDE2CEF6BAF3B5C458
:104E0000C3FCC1EECEAA283C3EC4DA293A3C257345
:104E10003E0D0A004C454431204F4E009401234280
:104E2000B4F2BFAA4C4544310D0A0000B4F2BFAA47
:104E30004C454431B3C9B9A60D0A00004C45443174
:104E4000204F464600000000B9D8B1D54C4544314A
:104E50000D0A0000B9D8B1D54C454431B3C9B9A643
:104E60000D0A000042454550204F46460000000014
:104E7000A0812142B9D8B1D5424545500D0A000064
:104E8000B9D8B1D542454550B3C9B9A60D0A0000FD
:104E900042454550204F4E00BFAAC6F442454550FA
:104EA0000D0A0000BFAAC6F442454550B3C9B9A6D1
:104EB0000D0A00004745542054264800B6C1C8A139
:104EC000A3ACCEC2B6C83A2564A1E620CAAAB6C829
:104ED0003A2564252552480D0A00000070B586B0B9
:104EE00004460D460026142101A8FBF706FC2846BF
:104EF000FBF7E4FBC6B2032C01D0022C12D13246E0
:104F000019A101A8FBF718FAC8221BA101A8FEF7F6
:104F10007DFDC820FFF74EFD642217A12846FEF74D
:104F2000AFFD1FE0012C0BD1FEF738FD142212A1BA
:104F300012A0FEF76BFD294613A000F02FF811E038
:104F4000324612A101A8FBF7F7F9C8220AA101A86D
:104F5000FEF75CFDC820FFF72DFD642206A1284660
:104F6000FEF78EFD06B070BD41542B4349505345AA
:104F70004E443D25640000004F4B000041542B433C
:104F8000495053454E4400002573000041542B43C3
:104F9000495053454E443D302C2564000FB438B57C
:104FA00005A800900F48009A0499FBF7A7F9002084
:104FB00000900C48FBF782FB85B200240DE000BF97
:104FC00040210948FDF736FC0028F9D00548015D6D
:104FD0000548FDF7FCFC601C84B2AC42EFDB38BC3A
:104FE0005DF814FB3E0500200048004010B586B077
:104FF0000446012144F20400FDF7DEF84FF400708E
:10500000ADF8140003208DF8160018208DF8170055
:1050100005A91C48FCF79FFD4FF48060ADF8140013
:1050200004208DF8170005A91648FCF794FD2520EB
:105030008DF8000003208DF801008DF8020001209A
:105040008DF803006846FDF753F801940020ADF891
:105050000800ADF80A00ADF80C00ADF810000C2007
:10506000ADF80E0001A90848FDF740FC012240F20E
:1050700025510548FDF715FC01210348FDF780FB8C
:1050800006B010BD000801400038014010B586B0E0
:10509000044601210820FDF78FF801218804FDF75F
:1050A0006BF82A48FDF778FB4FF48060ADF81000EC
:1050B00003208DF8120018208DF8130004A924484D
:1050C000FCF749FD4FF40060ADF8100004208DF8A6
:1050D000130004A91E48FCF73EFD00940020ADF823
:1050E0000400ADF80600ADF80800ADF80C000C2087
:1050F000ADF80A0069461548FDF7F8FB0121134891
:10510000FDF73EFB012240F225511048FDF7C9FB97
:1051100027208DF8140002208DF8150003208DF84B
:10512000160001208DF8170005A8FCF7E1FF41F6F5
:105130001F4140F2E730FDF7BBF900200549088028
:1051400000210548FDF7EAF906B010BD004800400F
:10515000000C0140240000200014004030B595B040
:10516000054613AB12AA09A9284600F039FA0446ED
:1051700014B1204615B030BD0020149026E022491D
:1051800009689DF8502001EBC20113AB11AA4868D1
:1051900001A900F025FA04460CB12046EAE709A966
:1051A00001A800F0BBFC60B99DF844009DF84810D0
:1051B000884201DD0220DDE79DF850001249887524
:1051C0000AE09DF85000401CC0B214900E48007DCB
:1051D0009DF850108842D2DC00BF0B48007D9DF83E
:1051E0005010884201D10420C4E714A9284600F0D9
:1051F000D7FA04460CB12046BCE79DF8500002499E
:1052000048750020B6E70000940000202DE9F04129
:105210009AB09C48847D007DA04202DC1AB0BDE8B3
:10522000F0819849096801EBC40106AB07AA4868F8
:1052300008A900F0D5F908A993A0FBF771F800269A
:1052400044E09048008B0121B1400840D8B12221B0
:105250008FA0FBF765F8304600F028FB8949243120
:10526000471839468BA0FBF75BF8222188A0FBF793
:1052700057F8304600F01AFB82492431084410A93F
:1052800041F8260018E0304600F010FB7D4924313B
:10529000085810A941F826007A48C07D30B910A8F6
:1052A00050F826107CA0FBF73BF805E010A850F85A
:1052B00026107AA0FBF734F89DF81C00401EB0427F
:1052C00002D078A0FBF72CF8701CC6B29DF81C0029
:1052D0008642B6DB74A0FBF723F800F039FB69487F
:1052E000407D0B280DD2DFE800F0060D151E273299
:1052F0003F4E5F7287006349096851F83400804768
:10530000054690E05F4A126852F8341010988847BA
:10531000054688E05B4B1B6853F83420DDE910013B
:10532000904705467FE0574F3F6857F8343010A844
:1053300007C89847054676E0DFF848C1DCF800C0AA
:105340005CF8347010A80FC8B84705466BE0149895
:10535000DFF830C10090DCF800C05CF8347010A8B1
:105360000FC8B84705465EE0DDE91401DFF814C157
:10537000CDE90001DCF800C05CF8347010A80FC85B
:10538000B84705464FE0DDE914121698DFF8F4C07F
:10539000CDE900120290DCF800C05CF8347010A86F
:1053A0000FC8B84705463EE0DDE91423DDE91610D5
:1053B000DFF8D0C0CDE90023CDE90210DCF800C051
:1053C0005CF8347010A80FC8B84705462BE0DDE93B
:1053D0001523DDE91710CDE90123CDE90310149859
:1053E000DFF8A0C00090DCF800C05CF8347010A8B2
:1053F0000FC8B847054616E0DDE91623DDE91810A9
:10540000CDE90223CDE90410DDE91401DFF874C011
:10541000CDE90001DCF800C05CF8347010A80FC8BA
:10542000B847054600BF00BF00F050FA9DF81800CD
:1054300001280CD11348C07D20B929461BA0FAF7DA
:105440006FFF07E029461BA0FAF76AFF02E018A0E9
:10545000FAF766FF0B4890F8EC0088B10948D0F8DD
:10546000F0000A21B0FBF1F201FB12070548D0F869
:10547000F000B0FBF1F83A46414611A0FAF750FFB0
:1054800000BFCBE6940000200D0A25732800000021
:105490002563000025730000256C750030582558E1
:1054A000000000002C000000290000003D256C7564
:1054B0003B0D0A003D305825583B0D0A0000000006
:1054C00046756E6374696F6E2052756E2054696DF7
:1054D000653A25642E2531646D730D0A00000000C5
:1054E000F0B503461546002000220026002455E0B2
:1054F0001F782C2F01D104B901221F78292F01D048
:105500001F780FB904B94AE0002E34D11F78302F2C
:1055100002DB1F78392F11DD1F78612F02DB1F7826
:10552000662F0BDD1F78412F02DB1F78462F05DD2C
:105530001F78582F02D01F78782F0CD102B12EE09F
:105540001F78612F03DB1F78203F0F7001E01F7869
:105550000F70491C1FE01F78222F04D102B11EE0FA
:105560000126012417E01F78202F14D01F782C2F3C
:1055700011D0FF2613E01F78222F00D1002402B1A2
:105580000DE044B11F785C2F02D15B1C471CF8B2C0
:105590001F780F70491C471CF8B25B1CA8E700BFBE
:1055A00000270F702E70F0BD10B50446002010705B
:1055B0000BE020780870641C491C1078401C1070A7
:1055C0001078984201DB012010BD2078202802D0FD
:1055D00020780028EDD10020087000BFF4E700001B
:1055E0002DE9FF4F85B080468946002700200490B2
:1055F0000390012002904FF0000B002544461DE06F
:105600002078202816D005F07F00052812DA0DB981
:1056100045F0800505F07F00042803D120782A2872
:1056200000D00EE0207805F07F010DF80100681C25
:10563000C5B202E0852D00D103E0641C207800286B
:10564000DED100BF8DB1002005F07F010DF8010013
:1056500051A1684600F062FA18B90021089801705B
:1056600002E001210898017000254FF0000A44462D
:1056700014E0641C0AF1010000F0FF0A20782028E1
:1056800002D020782A2809D1204600F0D7F9064612
:10569000282E03D02A2E01D0CDF810A0207828285B
:1056A00002D020780028E4D14446049810B1049830
:1056B000401C04444FF0000A002654E0207810B942
:1056C0004FF0010A50E02078282803D116B9781C41
:1056D000C7B213E02078292808D13EB917B1781E47
:1056E000C7B201E04FF0010A47B93DE02078222817
:1056F00004D10EB9012000E00020064647B9207809
:1057000020282FD0207889F8000009F1010929E02C
:1057100020782C2804D101200290681CC5B214E026
:105720002078202811D0207828280ED04DB9BBF140
:10573000050F06DA20780DF80B000BF1010000F0E0
:10574000FF0B0298401CC0B20290012F0AD10298B0
:10575000022807D10298401CC0B202900398401C56
:10576000C0B20390641CA9E700BF0398012809D1C7
:1057700000200DF80B0008A1684600F0CFF908B929
:1057800000200390079903980870002089F8000012
:10579000504609B0BDE8F08F766F696400000000E4
:1057A0002DE9F043B5B005460F460024002604E07D
:1057B00000213D488155701CC6B20A2EF8DB06E078
:1057C0006D1C287818B9012035B0BDE8F083287821
:1057D0002828F5D16D1C61E034AA69462846FFF7F8
:1057E0007FFE064635449DF8D00020B1012827D021
:1057F000FF284CD149E09DF8000000B333A968466A
:1058000000F027F906460EB10220DDE7204600F041
:105810004DF825490A31339A0A50A1F12400008B32
:105820000121A140884320491A39088304211E48D8
:105830000155601CC4B20A2C01DD0320C4E726E038
:10584000684600F087F9401C00F0FF08204600F091
:105850002DF815490A3100EB01094946684600F068
:105860006EF911481A38018B0120A040014388B21B
:105870000D491A3908830C4800F80480601CC4B232
:105880000A2C01DD03209FE701E002209CE700BF16
:105890002878292801D0287800B900E09CE700BFCB
:1058A0003C70002090E70000AE000020024600207F
:1058B000002105E0044B5B5C0344D8B24B1CD9B219
:1058C0009142F7DB70470000AE00002010B50121C7
:1058D0000D48FCF732FE012808D10C48D0F8F00042
:1058E0004FF6FF7108440949C1F8F0000648FCF77B
:1058F00021FE0649D1F8F01008440449C1F8F0002F
:105900000846D0F8F00010BD0008004094000020C8
:1059100010B5044604EBC40000EB04100122C2EBF6
:10592000800081B24FF47A70FCF780FE01200149BB
:10593000C87510BD9400002010B50246012000E09B
:1059400050430B1EA1F10104E1B2F9D110BD0000DA
:1059500010B501210848FCF7DBFD4FF6FF71064842
:10596000FCF70EFE00210448FCF70CFE0020034962
:10597000C1F8F00010BD00000008004094000020B5
:1059800070B51D48008800F40040002833D01A4844
:1059900005780020194948551948816817488847F3
:1059A00004461CB91649C868804721E0134800F036
:1059B000DDF80546012D00D02C46CCB1012C06D0D7
:1059C000022C08D0032C0AD0042C10D10BE00DA01F
:1059D000FAF7A6FC0BE00EA0FAF7A2FC07E00FA076
:1059E000FAF79EFC03E010A0FAF79AFC00BF00BF94
:1059F00000200149088070BD1C000020100200201A
:105A000094000020BAAFCAFDB4EDCEF3210D0A0018
:105A1000B2CECAFDB4EDCEF3210D0A00B2CECAFD5E
:105A2000CCABB6E0210D0A00CEB4D5D2B5BDC6A52B
:105A3000C5E4B5C4BAAFCAFD210D0A000146491C30
:105A400000E0491C0878202801D10029F9D1087804
:105A500070472DE9F04307460E4600254FF00A082F
:105A60003C46002030601FE02078392802DC207896
:105A700030280ADA2078462802DC2078412804DA27
:105A80002078582809D1012D07D12078412801DB41
:105A90004FF01008681CC5B205E0207800B904E09A
:105AA0000120BDE8F083641CDEE700BF3C46B8F18E
:105AB000100F0FD1032D01DA0220F2E720783028F1
:105AC00006D16078582803D1A41CA81EC5B204E0F2
:105AD0000320E6E70DB90420E3E71BE00DB1681EE3
